{
  "address": "0xd38562084C6bbb6fFe89A9780CB26B86ee66B91B",
  "abi": [
    {
      "inputs": [],
      "stateMutability": "nonpayable",
      "type": "constructor"
    },
    {
      "inputs": [
        {
          "internalType": "address",
          "name": "spender",
          "type": "address"
        },
        {
          "internalType": "uint256",
          "name": "allowance",
          "type": "uint256"
        },
        {
          "internalType": "uint256",
          "name": "needed",
          "type": "uint256"
        }
      ],
      "name": "ERC20InsufficientAllowance",
      "type": "error"
    },
    {
      "inputs": [
        {
          "internalType": "address",
          "name": "sender",
          "type": "address"
        },
        {
          "internalType": "uint256",
          "name": "balance",
          "type": "uint256"
        },
        {
          "internalType": "uint256",
          "name": "needed",
          "type": "uint256"
        }
      ],
      "name": "ERC20InsufficientBalance",
      "type": "error"
    },
    {
      "inputs": [
        {
          "internalType": "address",
          "name": "approver",
          "type": "address"
        }
      ],
      "name": "ERC20InvalidApprover",
      "type": "error"
    },
    {
      "inputs": [
        {
          "internalType": "address",
          "name": "receiver",
          "type": "address"
        }
      ],
      "name": "ERC20InvalidReceiver",
      "type": "error"
    },
    {
      "inputs": [
        {
          "internalType": "address",
          "name": "sender",
          "type": "address"
        }
      ],
      "name": "ERC20InvalidSender",
      "type": "error"
    },
    {
      "inputs": [
        {
          "internalType": "address",
          "name": "spender",
          "type": "address"
        }
      ],
      "name": "ERC20InvalidSpender",
      "type": "error"
    },
    {
      "anonymous": false,
      "inputs": [
        {
          "indexed": true,
          "internalType": "address",
          "name": "owner",
          "type": "address"
        },
        {
          "indexed": true,
          "internalType": "address",
          "name": "spender",
          "type": "address"
        },
        {
          "indexed": false,
          "internalType": "uint256",
          "name": "value",
          "type": "uint256"
        }
      ],
      "name": "Approval",
      "type": "event"
    },
    {
      "anonymous": false,
      "inputs": [
        {
          "indexed": true,
          "internalType": "address",
          "name": "provider",
          "type": "address"
        },
        {
          "indexed": false,
          "internalType": "address",
          "name": "tokenA",
          "type": "address"
        },
        {
          "indexed": false,
          "internalType": "address",
          "name": "tokenB",
          "type": "address"
        },
        {
          "indexed": false,
          "internalType": "uint256",
          "name": "amountAAdded",
          "type": "uint256"
        },
        {
          "indexed": false,
          "internalType": "uint256",
          "name": "amountBAdded",
          "type": "uint256"
        },
        {
          "indexed": false,
          "internalType": "uint256",
          "name": "lpTokensMinted",
          "type": "uint256"
        }
      ],
      "name": "LiquidityAdded",
      "type": "event"
    },
    {
      "anonymous": false,
      "inputs": [
        {
          "indexed": true,
          "internalType": "address",
          "name": "provider",
          "type": "address"
        },
        {
          "indexed": false,
          "internalType": "address",
          "name": "tokenA",
          "type": "address"
        },
        {
          "indexed": false,
          "internalType": "address",
          "name": "tokenB",
          "type": "address"
        },
        {
          "indexed": false,
          "internalType": "uint256",
          "name": "amountAReceived",
          "type": "uint256"
        },
        {
          "indexed": false,
          "internalType": "uint256",
          "name": "amountBReceived",
          "type": "uint256"
        },
        {
          "indexed": false,
          "internalType": "uint256",
          "name": "lpTokensBurned",
          "type": "uint256"
        }
      ],
      "name": "LiquidityRemoved",
      "type": "event"
    },
    {
      "anonymous": false,
      "inputs": [
        {
          "indexed": true,
          "internalType": "address",
          "name": "swapper",
          "type": "address"
        },
        {
          "indexed": false,
          "internalType": "address",
          "name": "inputToken",
          "type": "address"
        },
        {
          "indexed": false,
          "internalType": "address",
          "name": "outputToken",
          "type": "address"
        },
        {
          "indexed": false,
          "internalType": "uint256",
          "name": "amountIn",
          "type": "uint256"
        },
        {
          "indexed": false,
          "internalType": "uint256",
          "name": "amountOut",
          "type": "uint256"
        }
      ],
      "name": "Swap",
      "type": "event"
    },
    {
      "anonymous": false,
      "inputs": [
        {
          "indexed": true,
          "internalType": "address",
          "name": "from",
          "type": "address"
        },
        {
          "indexed": true,
          "internalType": "address",
          "name": "to",
          "type": "address"
        },
        {
          "indexed": false,
          "internalType": "uint256",
          "name": "value",
          "type": "uint256"
        }
      ],
      "name": "Transfer",
      "type": "event"
    },
    {
      "inputs": [],
      "name": "aToken",
      "outputs": [
        {
          "internalType": "address",
          "name": "",
          "type": "address"
        }
      ],
      "stateMutability": "view",
      "type": "function"
    },
    {
      "inputs": [
        {
          "internalType": "address",
          "name": "tokenA",
          "type": "address"
        },
        {
          "internalType": "address",
          "name": "tokenB",
          "type": "address"
        },
        {
          "internalType": "uint256",
          "name": "amountADesired",
          "type": "uint256"
        },
        {
          "internalType": "uint256",
          "name": "amountBDesired",
          "type": "uint256"
        },
        {
          "internalType": "uint256",
          "name": "amountAMin",
          "type": "uint256"
        },
        {
          "internalType": "uint256",
          "name": "amountBMin",
          "type": "uint256"
        },
        {
          "internalType": "address",
          "name": "to",
          "type": "address"
        },
        {
          "internalType": "uint256",
          "name": "deadline",
          "type": "uint256"
        }
      ],
      "name": "addLiquidity",
      "outputs": [
        {
          "internalType": "uint256",
          "name": "amountA",
          "type": "uint256"
        },
        {
          "internalType": "uint256",
          "name": "amountB",
          "type": "uint256"
        },
        {
          "internalType": "uint256",
          "name": "liquidity",
          "type": "uint256"
        }
      ],
      "stateMutability": "nonpayable",
      "type": "function"
    },
    {
      "inputs": [
        {
          "internalType": "address",
          "name": "owner",
          "type": "address"
        },
        {
          "internalType": "address",
          "name": "spender",
          "type": "address"
        }
      ],
      "name": "allowance",
      "outputs": [
        {
          "internalType": "uint256",
          "name": "",
          "type": "uint256"
        }
      ],
      "stateMutability": "view",
      "type": "function"
    },
    {
      "inputs": [
        {
          "internalType": "address",
          "name": "spender",
          "type": "address"
        },
        {
          "internalType": "uint256",
          "name": "value",
          "type": "uint256"
        }
      ],
      "name": "approve",
      "outputs": [
        {
          "internalType": "bool",
          "name": "",
          "type": "bool"
        }
      ],
      "stateMutability": "nonpayable",
      "type": "function"
    },
    {
      "inputs": [],
      "name": "bToken",
      "outputs": [
        {
          "internalType": "address",
          "name": "",
          "type": "address"
        }
      ],
      "stateMutability": "view",
      "type": "function"
    },
    {
      "inputs": [
        {
          "internalType": "address",
          "name": "account",
          "type": "address"
        }
      ],
      "name": "balanceOf",
      "outputs": [
        {
          "internalType": "uint256",
          "name": "",
          "type": "uint256"
        }
      ],
      "stateMutability": "view",
      "type": "function"
    },
    {
      "inputs": [],
      "name": "decimals",
      "outputs": [
        {
          "internalType": "uint8",
          "name": "",
          "type": "uint8"
        }
      ],
      "stateMutability": "view",
      "type": "function"
    },
    {
      "inputs": [
        {
          "internalType": "uint256",
          "name": "amountIn",
          "type": "uint256"
        },
        {
          "internalType": "uint256",
          "name": "reserveIn",
          "type": "uint256"
        },
        {
          "internalType": "uint256",
          "name": "reserveOut",
          "type": "uint256"
        }
      ],
      "name": "getAmountOut",
      "outputs": [
        {
          "internalType": "uint256",
          "name": "",
          "type": "uint256"
        }
      ],
      "stateMutability": "pure",
      "type": "function"
    },
    {
      "inputs": [
        {
          "internalType": "address",
          "name": "tokenA",
          "type": "address"
        },
        {
          "internalType": "address",
          "name": "tokenB",
          "type": "address"
        }
      ],
      "name": "getPrice",
      "outputs": [
        {
          "internalType": "uint256",
          "name": "price",
          "type": "uint256"
        }
      ],
      "stateMutability": "view",
      "type": "function"
    },
    {
      "inputs": [],
      "name": "name",
      "outputs": [
        {
          "internalType": "string",
          "name": "",
          "type": "string"
        }
      ],
      "stateMutability": "view",
      "type": "function"
    },
    {
      "inputs": [
        {
          "internalType": "address",
          "name": "tokenA",
          "type": "address"
        },
        {
          "internalType": "address",
          "name": "tokenB",
          "type": "address"
        },
        {
          "internalType": "uint256",
          "name": "liquidity",
          "type": "uint256"
        },
        {
          "internalType": "uint256",
          "name": "amountAMin",
          "type": "uint256"
        },
        {
          "internalType": "uint256",
          "name": "amountBMin",
          "type": "uint256"
        },
        {
          "internalType": "address",
          "name": "to",
          "type": "address"
        },
        {
          "internalType": "uint256",
          "name": "deadline",
          "type": "uint256"
        }
      ],
      "name": "removeLiquidity",
      "outputs": [
        {
          "internalType": "uint256",
          "name": "amountA",
          "type": "uint256"
        },
        {
          "internalType": "uint256",
          "name": "amountB",
          "type": "uint256"
        }
      ],
      "stateMutability": "nonpayable",
      "type": "function"
    },
    {
      "inputs": [],
      "name": "reserveA",
      "outputs": [
        {
          "internalType": "uint256",
          "name": "",
          "type": "uint256"
        }
      ],
      "stateMutability": "view",
      "type": "function"
    },
    {
      "inputs": [],
      "name": "reserveB",
      "outputs": [
        {
          "internalType": "uint256",
          "name": "",
          "type": "uint256"
        }
      ],
      "stateMutability": "view",
      "type": "function"
    },
    {
      "inputs": [
        {
          "internalType": "uint256",
          "name": "amountIn",
          "type": "uint256"
        },
        {
          "internalType": "uint256",
          "name": "amountOutMin",
          "type": "uint256"
        },
        {
          "internalType": "address[]",
          "name": "path",
          "type": "address[]"
        },
        {
          "internalType": "address",
          "name": "to",
          "type": "address"
        },
        {
          "internalType": "uint256",
          "name": "deadline",
          "type": "uint256"
        }
      ],
      "name": "swapExactTokensForTokens",
      "outputs": [],
      "stateMutability": "nonpayable",
      "type": "function"
    },
    {
      "inputs": [],
      "name": "symbol",
      "outputs": [
        {
          "internalType": "string",
          "name": "",
          "type": "string"
        }
      ],
      "stateMutability": "view",
      "type": "function"
    },
    {
      "inputs": [],
      "name": "totalSupply",
      "outputs": [
        {
          "internalType": "uint256",
          "name": "",
          "type": "uint256"
        }
      ],
      "stateMutability": "view",
      "type": "function"
    },
    {
      "inputs": [
        {
          "internalType": "address",
          "name": "to",
          "type": "address"
        },
        {
          "internalType": "uint256",
          "name": "value",
          "type": "uint256"
        }
      ],
      "name": "transfer",
      "outputs": [
        {
          "internalType": "bool",
          "name": "",
          "type": "bool"
        }
      ],
      "stateMutability": "nonpayable",
      "type": "function"
    },
    {
      "inputs": [
        {
          "internalType": "address",
          "name": "from",
          "type": "address"
        },
        {
          "internalType": "address",
          "name": "to",
          "type": "address"
        },
        {
          "internalType": "uint256",
          "name": "value",
          "type": "uint256"
        }
      ],
      "name": "transferFrom",
      "outputs": [
        {
          "internalType": "bool",
          "name": "",
          "type": "bool"
        }
      ],
      "stateMutability": "nonpayable",
      "type": "function"
    }
  ],
  "transactionHash": "0xe8e9d63d8f81a650b052dab956c5ae0b56b67a3403f72e27ae6e9038be0992f9",
  "args": [],
  "numDeployments": 1,
  "solcInputHash": "a917879ed4876bbe67319a6b3ba5f4bc",
  "bytecode": "0x60806040523480156200001157600080fd5b50604051806040016040528060088152602001672628102a37b5b2b760c11b8152506040518060400160405280600381526020016213141560ea1b81525081600390816200006091906200011d565b5060046200006f82826200011d565b505050620001e9565b634e487b7160e01b600052604160045260246000fd5b600181811c90821680620000a357607f821691505b602082108103620000c457634e487b7160e01b600052602260045260246000fd5b50919050565b601f8211156200011857600081815260208120601f850160051c81016020861015620000f35750805b601f850160051c820191505b818110156200011457828155600101620000ff565b5050505b505050565b81516001600160401b0381111562000139576200013962000078565b62000151816200014a84546200008e565b84620000ca565b602080601f831160018114620001895760008415620001705750858301515b600019600386901b1c1916600185901b17855562000114565b600085815260208120601f198616915b82811015620001ba5788860151825594840194600190910190840162000199565b5085821015620001d95787850151600019600388901b60f8161c191681555b5050505050600190811b01905550565b6119e780620001f96000396000f3fe608060405234801561001057600080fd5b50600436106101165760003560e01c806370a08231116100a2578063ac41865a11610071578063ac41865a14610243578063baa2abde14610256578063dc5fa6c51461027e578063dd62ed3e14610287578063e8e33700146102c057600080fd5b806370a08231146101ec57806395d89b4114610215578063a0c1f15e1461021d578063a9059cbb1461023057600080fd5b806318160ddd116100e957806318160ddd146101a457806319e36f3b146101ac57806323b872dd146101b5578063313ce567146101c857806338ed1739146101d757600080fd5b8063054d50d41461011b57806306fdde0314610141578063095ea7b314610156578063180f584214610179575b600080fd5b61012e6101293660046115a6565b6102ee565b6040519081526020015b60405180910390f35b61014961036a565b60405161013891906115d2565b61016961016436600461163c565b6103fc565b6040519015158152602001610138565b60095461018c906001600160a01b031681565b6040516001600160a01b039091168152602001610138565b60025461012e565b61012e60075481565b6101696101c3366004611666565b610416565b60405160128152602001610138565b6101ea6101e53660046116a2565b61043a565b005b61012e6101fa366004611744565b6001600160a01b031660009081526020819052604090205490565b6101496108d5565b60085461018c906001600160a01b031681565b61016961023e36600461163c565b6108e4565b61012e61025136600461175f565b6108f2565b610269610264366004611792565b6109cd565b60408051928352602083019190915201610138565b61012e60065481565b61012e61029536600461175f565b6001600160a01b03918216600090815260016020908152604080832093909416825291909152205490565b6102d36102ce3660046117fc565b610cc1565b60408051938452602084019290925290820152606001610138565b60008083116103445760405162461bcd60e51b815260206004820152601c60248201527f496e70757420726573657276652063616e6e6f74206265207a65726f0000000060448201526064015b60405180910390fd5b61034e8484611886565b6103588386611899565b61036291906118c6565b949350505050565b606060038054610379906118e8565b80601f01602080910402602001604051908101604052809291908181526020018280546103a5906118e8565b80156103f25780601f106103c7576101008083540402835291602001916103f2565b820191906000526020600020905b8154815290600101906020018083116103d557829003601f168201915b5050505050905090565b60003361040a8185856110af565b60019150505b92915050565b6000336104248582856110c1565b61042f85858561113f565b506001949350505050565b6002831461048a5760405162461bcd60e51b815260206004820152601760248201527f50617468206d7573742062652074776f20746f6b656e73000000000000000000604482015260640161033b565b600086116104e65760405162461bcd60e51b815260206004820152602360248201527f416d6f756e7420696e206d7573742062652067726561746572207468616e207a60448201526265726f60e81b606482015260840161033b565b804211156105065760405162461bcd60e51b815260040161033b90611922565b60008484600081811061051b5761051b61194d565b90506020020160208101906105309190611744565b90506000858560018181106105475761054761194d565b905060200201602081019061055c9190611744565b6040516370a0823160e01b81523060048201529091506000906001600160a01b038416906370a0823190602401602060405180830381865afa1580156105a6573d6000803e3d6000fd5b505050506040513d601f19601f820116820180604052508101906105ca9190611963565b6040516370a0823160e01b81523060048201529091506000906001600160a01b038416906370a0823190602401602060405180830381865afa158015610614573d6000803e3d6000fd5b505050506040513d601f19601f820116820180604052508101906106389190611963565b905060008211801561064a5750600081115b6106965760405162461bcd60e51b815260206004820152601f60248201527f496e73756666696369656e74206c697175696469747920666f72207377617000604482015260640161033b565b60006106a38b84846102ee565b9050898110156106f55760405162461bcd60e51b815260206004820152601a60248201527f4d696e696d616c20616d6f756e74206e6f742072656163686564000000000000604482015260640161033b565b6040516323b872dd60e01b8152336004820152306024820152604481018c90526001600160a01b038616906323b872dd906064016020604051808303816000875af1158015610748573d6000803e3d6000fd5b505050506040513d601f19601f8201168201806040525081019061076c919061197c565b506008546001600160a01b03908116908616036107b9578a600660008282546107959190611886565b9250508190555080600760008282546107ae919061199e565b909155506108009050565b6009546001600160a01b0390811690861603610800578a600760008282546107e19190611886565b9250508190555080600660008282546107fa919061199e565b90915550505b60405163a9059cbb60e01b81526001600160a01b0388811660048301526024820183905285169063a9059cbb906044016020604051808303816000875af115801561084f573d6000803e3d6000fd5b505050506040513d601f19601f82011682018060405250810190610873919061197c565b50604080516001600160a01b038781168252861660208201529081018c90526060810182905233907fcd3829a3813dc3cdd188fd3d01dcf3268c16be2fdd2dd21d0665418816e460629060800160405180910390a25050505050505050505050565b606060048054610379906118e8565b60003361040a81858561113f565b60085460009081906001600160a01b0385811691161461091457600754610918565b6006545b6009549091506000906001600160a01b0385811691161461093b5760065461093f565b6007545b9050600082116109a75760405162461bcd60e51b815260206004820152602d60248201527f546f6b656e20412072657365727665206973207a65726f20666f72207072696360448201526c329031b0b631bab630ba34b7b760991b606482015260840161033b565b816109ba82670de0b6b3a7640000611899565b6109c491906118c6565b95945050505050565b60008060008711610a205760405162461bcd60e51b815260206004820152601c60248201527f4c69717569646974792073686f756c64206e6f74206265207a65726f00000000604482015260640161033b565b82421115610a405760405162461bcd60e51b815260040161033b90611922565b600060055411610a895760405162461bcd60e51b8152602060048201526014602482015273139bc81b1a5c5d5a591a5d1e481a5b881c1bdbdb60621b604482015260640161033b565b60055487600654610a9a9190611899565b610aa491906118c6565b915060055487600754610ab79190611899565b610ac191906118c6565b90508160066000828254610ad5919061199e565b925050819055508060076000828254610aee919061199e565b925050819055508660056000828254610b07919061199e565b9091555050858210801590610b1c5750848110155b610b685760405162461bcd60e51b815260206004820152601a60248201527f4d696e696d616c20616d6f756e74206e6f742072656163686564000000000000604482015260640161033b565b60405163a9059cbb60e01b81526001600160a01b038581166004830152602482018490528a169063a9059cbb906044016020604051808303816000875af1158015610bb7573d6000803e3d6000fd5b505050506040513d601f19601f82011682018060405250810190610bdb919061197c565b5060405163a9059cbb60e01b81526001600160a01b0385811660048301526024820183905289169063a9059cbb906044016020604051808303816000875af1158015610c2b573d6000803e3d6000fd5b505050506040513d601f19601f82011682018060405250810190610c4f919061197c565b50610c5a338861119e565b604080516001600160a01b038b811682528a166020820152908101839052606081018290526080810188905233907fd765e08eef31c0983ecca03ecd166297ac485ecd5dd69e291c848f0a020333c19060a00160405180910390a297509795505050505050565b600080808815801590610cd357508715155b610d185760405162461bcd60e51b8152602060048201526016602482015275416d6f756e74732063616e6e6f74206265207a65726f60501b604482015260640161033b565b888711158015610d285750878611155b610d6a5760405162461bcd60e51b8152602060048201526013602482015272135a5b9a5b5d5b481b9bdd081c995858da1959606a1b604482015260640161033b565b83421115610d8a5760405162461bcd60e51b815260040161033b90611922565b6040516323b872dd60e01b8152336004820152306024820152604481018a90526001600160a01b038c16906323b872dd906064016020604051808303816000875af1158015610ddd573d6000803e3d6000fd5b505050506040513d601f19601f82011682018060405250810190610e01919061197c565b506040516323b872dd60e01b8152336004820152306024820152604481018990526001600160a01b038b16906323b872dd906064016020604051808303816000875af1158015610e55573d6000803e3d6000fd5b505050506040513d601f19601f82011682018060405250810190610e79919061197c565b508892508791508260066000828254610e929190611886565b925050819055508160076000828254610eab9190611886565b9091555050600554600003610ee257610ecc610ec78385611899565b6111d8565b60058190559050610edd85826112c7565b611046565b6006541580610ef15750600754155b15610f645760405162461bcd60e51b815260206004820152603c60248201527f496e73756666696369656e7420726573657276657320666f722070726f706f7260448201527f74696f6e616c206c69717569646974792063616c63756c6174696f6e00000000606482015260840161033b565b600060065460055485610f779190611899565b610f8191906118c6565b9050600060075460055485610f969190611899565b610fa091906118c6565b9050808210610faf5780610fb1565b815b9250600083116110215760405162461bcd60e51b815260206004820152603560248201527f4e6f204c5020746f6b656e73206d696e7465642064756520746f20696d62616c604482015274616e6365206f7220736d616c6c20616d6f756e747360581b606482015260840161033b565b82600560008282546110339190611886565b90915550611043905087846112c7565b50505b604080516001600160a01b038d811682528c166020820152908101849052606081018390526080810182905233907f43c967b388d3a4ccad3f7ab80167852e322e5a3fde9893f530252281b2ae8b709060a00160405180910390a2985098509895505050505050565b6110bc83838360016112fd565b505050565b6001600160a01b038381166000908152600160209081526040808320938616835292905220546000198114611139578181101561112a57604051637dc7a0d960e11b81526001600160a01b0384166004820152602481018290526044810183905260640161033b565b611139848484840360006112fd565b50505050565b6001600160a01b03831661116957604051634b637e8f60e11b81526000600482015260240161033b565b6001600160a01b0382166111935760405163ec442f0560e01b81526000600482015260240161033b565b6110bc8383836113d2565b6001600160a01b0382166111c857604051634b637e8f60e11b81526000600482015260240161033b565b6111d4826000836113d2565b5050565b6000816000036111ea57506000919050565b600060016111f7846114fc565b901c6001901b90506001818481611210576112106118b0565b048201901c90506001818481611228576112286118b0565b048201901c90506001818481611240576112406118b0565b048201901c90506001818481611258576112586118b0565b048201901c90506001818481611270576112706118b0565b048201901c90506001818481611288576112886118b0565b048201901c905060018184816112a0576112a06118b0565b048201901c90506112c0818285816112ba576112ba6118b0565b04611590565b9392505050565b6001600160a01b0382166112f15760405163ec442f0560e01b81526000600482015260240161033b565b6111d4600083836113d2565b6001600160a01b0384166113275760405163e602df0560e01b81526000600482015260240161033b565b6001600160a01b03831661135157604051634a1406b160e11b81526000600482015260240161033b565b6001600160a01b038085166000908152600160209081526040808320938716835292905220829055801561113957826001600160a01b0316846001600160a01b03167f8c5be1e5ebec7d5bd14f71427d1e84f3dd0314c0f7b2291e5b200ac8c7c3b925846040516113c491815260200190565b60405180910390a350505050565b6001600160a01b0383166113fd5780600260008282546113f29190611886565b9091555061146f9050565b6001600160a01b038316600090815260208190526040902054818110156114505760405163391434e360e21b81526001600160a01b0385166004820152602481018290526044810183905260640161033b565b6001600160a01b03841660009081526020819052604090209082900390555b6001600160a01b03821661148b576002805482900390556114aa565b6001600160a01b03821660009081526020819052604090208054820190555b816001600160a01b0316836001600160a01b03167fddf252ad1be2c89b69c2b068fc378daa952ba7f163c4a11628f55a4df523b3ef836040516114ef91815260200190565b60405180910390a3505050565b600080608083901c1561151157608092831c92015b604083901c1561152357604092831c92015b602083901c1561153557602092831c92015b601083901c1561154757601092831c92015b600883901c1561155957600892831c92015b600483901c1561156b57600492831c92015b600283901c1561157d57600292831c92015b600183901c156104105760010192915050565b600081831061159f57816112c0565b5090919050565b6000806000606084860312156115bb57600080fd5b505081359360208301359350604090920135919050565b600060208083528351808285015260005b818110156115ff578581018301518582016040015282016115e3565b506000604082860101526040601f19601f8301168501019250505092915050565b80356001600160a01b038116811461163757600080fd5b919050565b6000806040838503121561164f57600080fd5b61165883611620565b946020939093013593505050565b60008060006060848603121561167b57600080fd5b61168484611620565b925061169260208501611620565b9150604084013590509250925092565b60008060008060008060a087890312156116bb57600080fd5b8635955060208701359450604087013567ffffffffffffffff808211156116e157600080fd5b818901915089601f8301126116f557600080fd5b81358181111561170457600080fd5b8a60208260051b850101111561171957600080fd5b60208301965080955050505061173160608801611620565b9150608087013590509295509295509295565b60006020828403121561175657600080fd5b6112c082611620565b6000806040838503121561177257600080fd5b61177b83611620565b915061178960208401611620565b90509250929050565b600080600080600080600060e0888a0312156117ad57600080fd5b6117b688611620565b96506117c460208901611620565b95506040880135945060608801359350608088013592506117e760a08901611620565b915060c0880135905092959891949750929550565b600080600080600080600080610100898b03121561181957600080fd5b61182289611620565b975061183060208a01611620565b965060408901359550606089013594506080890135935060a0890135925061185a60c08a01611620565b915060e089013590509295985092959890939650565b634e487b7160e01b600052601160045260246000fd5b8082018082111561041057610410611870565b808202811582820484141761041057610410611870565b634e487b7160e01b600052601260045260246000fd5b6000826118e357634e487b7160e01b600052601260045260246000fd5b500490565b600181811c908216806118fc57607f821691505b60208210810361191c57634e487b7160e01b600052602260045260246000fd5b50919050565b602080825260119082015270111958591b1a5b9948195e18d959591959607a1b604082015260600190565b634e487b7160e01b600052603260045260246000fd5b60006020828403121561197557600080fd5b5051919050565b60006020828403121561198e57600080fd5b815180151581146112c057600080fd5b818103818111156104105761041061187056fea26469706673582212202dc523e20e1598670a6e0459a8aa931ae484c1e7f206dd27dfd2477bbd0936bc64736f6c63430008140033",
  "devdoc": {
    "errors": {
      "ERC20InsufficientAllowance(address,uint256,uint256)": [
        {
          "details": "Indicates a failure with the `spender`s `allowance`. Used in transfers.",
          "params": {
            "allowance": "Amount of tokens a `spender` is allowed to operate with.",
            "needed": "Minimum amount required to perform a transfer.",
            "spender": "Address that may be allowed to operate on tokens without being their owner."
          }
        }
      ],
      "ERC20InsufficientBalance(address,uint256,uint256)": [
        {
          "details": "Indicates an error related to the current `balance` of a `sender`. Used in transfers.",
          "params": {
            "balance": "Current balance for the interacting account.",
            "needed": "Minimum amount required to perform a transfer.",
            "sender": "Address whose tokens are being transferred."
          }
        }
      ],
      "ERC20InvalidApprover(address)": [
        {
          "details": "Indicates a failure with the `approver` of a token to be approved. Used in approvals.",
          "params": {
            "approver": "Address initiating an approval operation."
          }
        }
      ],
      "ERC20InvalidReceiver(address)": [
        {
          "details": "Indicates a failure with the token `receiver`. Used in transfers.",
          "params": {
            "receiver": "Address to which tokens are being transferred."
          }
        }
      ],
      "ERC20InvalidSender(address)": [
        {
          "details": "Indicates a failure with the token `sender`. Used in transfers.",
          "params": {
            "sender": "Address whose tokens are being transferred."
          }
        }
      ],
      "ERC20InvalidSpender(address)": [
        {
          "details": "Indicates a failure with the `spender` to be approved. Used in approvals.",
          "params": {
            "spender": "Address that may be allowed to operate on tokens without being their owner."
          }
        }
      ]
    },
    "events": {
      "Approval(address,address,uint256)": {
        "details": "Emitted when the allowance of a `spender` for an `owner` is set by a call to {approve}. `value` is the new allowance."
      },
      "LiquidityAdded(address,address,address,uint256,uint256,uint256)": {
        "details": "Events to log significant actions in the contract for transparency and tracking."
      },
      "Transfer(address,address,uint256)": {
        "details": "Emitted when `value` tokens are moved from one account (`from`) to another (`to`). Note that `value` may be zero."
      }
    },
    "kind": "dev",
    "methods": {
      "addLiquidity(address,address,uint256,uint256,uint256,uint256,address,uint256)": {
        "details": "This function allows users to deposit a pair of tokens (tokenA and tokenB) into the liquidity pool.      The amount of LP tokens minted is calculated based on the square root of the product of desired amounts for the first liquidity provider,      and proportionally to existing reserves for subsequent providers.      It also transfers the tokens from the user to the contract and updates the reserves.",
        "params": {
          "amountADesired": "The desired amount of tokenA to add.",
          "amountAMin": "The minimum amount of tokenA to add, to prevent unfavorable rates.",
          "amountBDesired": "The desired amount of tokenB to add.",
          "amountBMin": "The minimum amount of tokenB to add, to prevent unfavorable rates.",
          "deadline": "The timestamp by which the transaction must be completed.",
          "to": "The address that will receive the LP tokens.",
          "tokenA": "The address of the first token in the pair.",
          "tokenB": "The address of the second token in the pair."
        },
        "returns": {
          "amountA": "The actual amount of tokenA added to the pool.",
          "amountB": "The actual amount of tokenB added to the pool.",
          "liquidity": "The amount of LP tokens minted."
        }
      },
      "allowance(address,address)": {
        "details": "See {IERC20-allowance}."
      },
      "approve(address,uint256)": {
        "details": "See {IERC20-approve}. NOTE: If `value` is the maximum `uint256`, the allowance is not updated on `transferFrom`. This is semantically equivalent to an infinite approval. Requirements: - `spender` cannot be the zero address."
      },
      "balanceOf(address)": {
        "details": "See {IERC20-balanceOf}."
      },
      "constructor": {
        "details": "Initializes the ERC20 LP token with a name and symbol."
      },
      "decimals()": {
        "details": "Returns the number of decimals used to get its user representation. For example, if `decimals` equals `2`, a balance of `505` tokens should be displayed to a user as `5.05` (`505 / 10 ** 2`). Tokens usually opt for a value of 18, imitating the relationship between Ether and Wei. This is the default value returned by this function, unless it's overridden. NOTE: This information is only used for _display_ purposes: it in no way affects any of the arithmetic of the contract, including {IERC20-balanceOf} and {IERC20-transfer}."
      },
      "getAmountOut(uint256,uint256,uint256)": {
        "details": "This pure function calculates the output amount based on the constant product formula      ($k = reserveIn \\times reserveOut$). The formula used is $(amountIn \\times reserveOut) / (reserveIn + amountIn)$.",
        "params": {
          "amountIn": "The amount of input tokens.",
          "reserveIn": "The current reserve of the input token in the pool.",
          "reserveOut": "The current reserve of the output token in the pool."
        },
        "returns": {
          "_0": "The calculated amount of output tokens."
        }
      },
      "getPrice(address,address)": {
        "details": "The price is calculated as the ratio of the reserves, scaled by 1e18.",
        "params": {
          "tokenA": "The address of the first token.",
          "tokenB": "The address of the second token."
        },
        "returns": {
          "price": "The price of tokenB in terms of tokenA (tokenB reserve / tokenA reserve * 1e18)."
        }
      },
      "name()": {
        "details": "Returns the name of the token."
      },
      "removeLiquidity(address,address,uint256,uint256,uint256,address,uint256)": {
        "details": "Users can burn their LP tokens to retrieve a proportional amount of the underlying token reserves.      The amounts of tokens returned are based on the liquidity provided relative to the total LP token supply.",
        "params": {
          "amountAMin": "The minimum amount of tokenA to receive, to prevent unfavorable rates.",
          "amountBMin": "The minimum amount of tokenB to receive, to prevent unfavorable rates.",
          "deadline": "The timestamp by which the transaction must be completed.",
          "liquidity": "The amount of LP tokens to burn.",
          "to": "The address that will receive the underlying tokens.",
          "tokenA": "The address of the first token in the pair.",
          "tokenB": "The address of the second token in the pair."
        },
        "returns": {
          "amountA": "The actual amount of tokenA received.",
          "amountB": "The actual amount of tokenB received."
        }
      },
      "swapExactTokensForTokens(uint256,uint256,address[],address,uint256)": {
        "details": "This function facilitates token swaps based on the current reserves in the pool.      It calculates the output amount based on the constant product formula and      transfers tokens accordingly.",
        "params": {
          "amountIn": "The amount of input tokens to swap.",
          "amountOutMin": "The minimum amount of output tokens to receive, to prevent unfavorable rates.",
          "deadline": "The timestamp by which the transaction must be completed.",
          "path": "An array of token addresses, ordered from input to output. For example, `[tokenA, tokenB]`.",
          "to": "The address that will receive the output tokens."
        }
      },
      "symbol()": {
        "details": "Returns the symbol of the token, usually a shorter version of the name."
      },
      "totalSupply()": {
        "details": "See {IERC20-totalSupply}."
      },
      "transfer(address,uint256)": {
        "details": "See {IERC20-transfer}. Requirements: - `to` cannot be the zero address. - the caller must have a balance of at least `value`."
      },
      "transferFrom(address,address,uint256)": {
        "details": "See {IERC20-transferFrom}. Emits an {Approval} event indicating the updated allowance. This is not required by the EIP. See the note at the beginning of {ERC20}. NOTE: Does not update the allowance if the current allowance is the maximum `uint256`. Requirements: - `from` and `to` cannot be the zero address. - `from` must have a balance of at least `value`. - the caller must have allowance for ``from``'s tokens of at least `value`."
      }
    },
    "stateVariables": {
      "LPtokenSupply": {
        "details": "The total supply of LP (Liquidity Provider) tokens."
      },
      "reserveA": {
        "details": "The reserve of token A in the liquidity pool."
      },
      "reserveB": {
        "details": "The reserve of token B in the liquidity pool."
      }
    },
    "title": "A simplified decentralized exchange for swapping and providing liquidity.",
    "version": 1
  },
  "userdoc": {
    "kind": "user",
    "methods": {
      "addLiquidity(address,address,uint256,uint256,uint256,uint256,address,uint256)": {
        "notice": "Adds liquidity to the pool, minting LP tokens to the provider."
      },
      "constructor": {
        "notice": "Constructor for the SimpleSwap contract."
      },
      "getAmountOut(uint256,uint256,uint256)": {
        "notice": "Calculates the amount of output tokens received for a given amount of input tokens."
      },
      "getPrice(address,address)": {
        "notice": "Gets the current price of one token relative to another in the pool."
      },
      "removeLiquidity(address,address,uint256,uint256,uint256,address,uint256)": {
        "notice": "Removes liquidity from the pool, burning LP tokens and returning underlying tokens."
      },
      "swapExactTokensForTokens(uint256,uint256,address[],address,uint256)": {
        "notice": "Swaps an exact amount of input tokens for an amount of output tokens."
      }
    },
    "notice": "This contract implements a basic automated market maker (AMM) for two tokens, allowing users to add/remove liquidity and swap tokens.",
    "version": 1
  },
  "storageLayout": {
    "storage": [
      {
        "astId": 163,
        "contract": "contracts/SimpleSwap.sol:SimpleSwap",
        "label": "_balances",
        "offset": 0,
        "slot": "0",
        "type": "t_mapping(t_address,t_uint256)"
      },
      {
        "astId": 169,
        "contract": "contracts/SimpleSwap.sol:SimpleSwap",
        "label": "_allowances",
        "offset": 0,
        "slot": "1",
        "type": "t_mapping(t_address,t_mapping(t_address,t_uint256))"
      },
      {
        "astId": 171,
        "contract": "contracts/SimpleSwap.sol:SimpleSwap",
        "label": "_totalSupply",
        "offset": 0,
        "slot": "2",
        "type": "t_uint256"
      },
      {
        "astId": 173,
        "contract": "contracts/SimpleSwap.sol:SimpleSwap",
        "label": "_name",
        "offset": 0,
        "slot": "3",
        "type": "t_string_storage"
      },
      {
        "astId": 175,
        "contract": "contracts/SimpleSwap.sol:SimpleSwap",
        "label": "_symbol",
        "offset": 0,
        "slot": "4",
        "type": "t_string_storage"
      },
      {
        "astId": 1943,
        "contract": "contracts/SimpleSwap.sol:SimpleSwap",
        "label": "LPtokenSupply",
        "offset": 0,
        "slot": "5",
        "type": "t_uint256"
      },
      {
        "astId": 1946,
        "contract": "contracts/SimpleSwap.sol:SimpleSwap",
        "label": "reserveA",
        "offset": 0,
        "slot": "6",
        "type": "t_uint256"
      },
      {
        "astId": 1949,
        "contract": "contracts/SimpleSwap.sol:SimpleSwap",
        "label": "reserveB",
        "offset": 0,
        "slot": "7",
        "type": "t_uint256"
      },
      {
        "astId": 2561,
        "contract": "contracts/SimpleSwap.sol:SimpleSwap",
        "label": "aToken",
        "offset": 0,
        "slot": "8",
        "type": "t_address"
      },
      {
        "astId": 2563,
        "contract": "contracts/SimpleSwap.sol:SimpleSwap",
        "label": "bToken",
        "offset": 0,
        "slot": "9",
        "type": "t_address"
      }
    ],
    "types": {
      "t_address": {
        "encoding": "inplace",
        "label": "address",
        "numberOfBytes": "20"
      },
      "t_mapping(t_address,t_mapping(t_address,t_uint256))": {
        "encoding": "mapping",
        "key": "t_address",
        "label": "mapping(address => mapping(address => uint256))",
        "numberOfBytes": "32",
        "value": "t_mapping(t_address,t_uint256)"
      },
      "t_mapping(t_address,t_uint256)": {
        "encoding": "mapping",
        "key": "t_address",
        "label": "mapping(address => uint256)",
        "numberOfBytes": "32",
        "value": "t_uint256"
      },
      "t_string_storage": {
        "encoding": "bytes",
        "label": "string",
        "numberOfBytes": "32"
      },
      "t_uint256": {
        "encoding": "inplace",
        "label": "uint256",
        "numberOfBytes": "32"
      }
    }
  }
}